:10000000FC7F002079060000690600006D060000F4
:1000100000000000000000000000000000000000E0
:100020000000000000000000000000007106000059
:100030000000000000000000750600001508000028
:1000400010B5064C2378002B07D1054B002B02D0AE
:10005000044800E000BF0123237010BD58000020B9
:1000600000000000D01E000008B5084B002B03D094
:100070000748084900E000BF07480368002B03D089
:10008000064B002B00D0984708BDC046000000007A
:10009000D01E00005C000020540000200000000082
:1000A00010B50124C3695B081C42FBD1036802241C
:1000B000A34303600124C3691C42FCD104680123EB
:1000C00023430360012403681C42FCD10124C3695B
:1000D0001C42FCD1C3695B081C42F8D10A4B1A438D
:1000E00002600122C3699B081A42FBD1C0239B0214
:1000F000436081810122C3695B081A42FBD1026817
:1001000002231343036010BD040000400122C369B1
:100110005B081A42FBD103680222934303607047D5
:100120000122037E1A42FCD0018570470122037E22
:100130009B081A42FBD0438BDA0705D4438B9A07FE
:1001400002D4438B5A0702D50122024B1A70008D4C
:10015000C0B2704774000020F0B54F464646C0B4A8
:10016000031C30241A48047000200124184EB146A4
:10017000184FBC46B04601E00A1C391C1D7EAD0874
:100180002C4203D147463D78002DF7D13578002D1C
:1001900019D05D8B2C4207D15D8B6D082C4203D1A9
:1001A0005D8BAD082C4201D065462C704F1C1D8D17
:1001B0000D70013080B2511E89B2002A03D04D4625
:1001C0002A78002AD8D10CBC90469946F0BDC0468A
:1001D0008A00002074000020F8B5041C03689A8B84
:1001E00011072DD508229A8380229A72112080212E
:1001F0004900585440200621FF31585482214900BB
:100200005A54144A5768144E3740C025AD052F4341
:10021000576057693E4035435561104D1560104D8C
:10022000156156680F4D35408026B602354355603E
:100230005568AD0BAD03556058540023237106E09B
:100240000822FF329B5CDA0601D500F035FB2079ED
:10025000F8BDC0468C010020FFFFFF8F8C000020FE
:100260000C010020FF3F00F0016000230371437187
:10027000034B83600A78022313430B707047C04618
:10028000D901000010B5394BD96920220A43DA613F
:10029000374B5822995C0120014399543C22995CC8
:1002A0000F24A14399549C5C062121439954592160
:1002B0005C5C20435854985C0F2101409954985C31
:1002C0006021014399542B4A2B4B5A801A1C5378B6
:1002D0005BB2002BFBDB294B197801220A431A7011
:1002E000191C01228B781A42FCD1254B1B689B03F9
:1002F000DB0E1F2B00D10523204A9901108D214BC5
:1003000003400B4313851E4B1B685B02DB0E1F2B48
:1003100000D11D23194A118D1F2081430B431385E2
:10032000174B1A689201520F072A00D10322134B70
:100330001103188D144A02400A431A851A787F2146
:100340000A401A70197804220A431A700F4858623A
:100350001A890C218A431A811A8901218A431A8138
:100360000021802201F029FC10BDC046000400409D
:100370000044004106400000000C004000500041D5
:10038000246080003FF8FFFFFF8FFFFF8C010020FB
:10039000F0B5474680B4041C171C1E1C1D1C5B01D5
:1003A000224AD31810335B685B005B0F03330122D2
:1003B0009A40BA4208D873011C4AD318586980225F
:1003C000120602435A610BE0321C531E9A419201FD
:1003D000174BD2189046101C3A1C01F0E5FB414621
:1003E0007301124AD218131C1161B904890C5269A5
:1003F000920B92030A435A6159690E4A0A405A61A4
:1004000008367601A6190223F371727980235B42C4
:100410001343737108356D0101216319DB795B08A2
:100420001942FAD0381C04BC9046F0BD8C01002063
:100430000C010020FF3F00F038B5051C141C1B4BBD
:100440001B78002B13D11A4B1A4A1A645A6C920B60
:1004500092035A64586C184A02405A64A2235B0003
:10046000E85C40220243EA540122104B1A704823F0
:10047000FF33EB5CDA0716D50D4B5B6C9B049B0CD2
:10048000A34203D20A4B5C6CA404A40C081C0949C7
:10049000221C01F089FB01224823FF33EA54002289
:1004A000024B1A7000E00024201C38BD75000020AB
:1004B0008C010020CC000020FF3F00F0002906D076
:1004C0000623FF33C15C20220A43C25405E0062301
:1004D000FF33C15C10220A43C25470470B4B5A6968
:1004E000920B92035A6102220823FF33C25406235F
:1004F000FF33C15C802252420A43C2540821FF31BB
:100500000122435C5B081A42FBD070478C0100203B
:1005100080235B421943C9B28172704770B50322D0
:10052000A0235B00C254134B5C6C134A1440C021DF
:1005300089050C435C6440244625FF3544550F4D26
:100540001D64302690256D0046555D6B154029438E
:100550005963802192256D004155094D1D63B025D9
:100560006D0044555C6F22405A67B2235B00C15452
:1005700070BDC0468C010020FFFFFF8FCC00002023
:100580004C0100202E4B5A681E218A4302210A4347
:100590005A602C4B832292009A82998A02220A4343
:1005A0009A82191C0122CB685B081A42FBD0264BA9
:1005B0000222FF329A60254A5A601A1C5378DB09DE
:1005C000FCD1214B8222D2015A801E490122CB68E4
:1005D0001B091A42FBD002221A4B9A84191C0122D1
:1005E000CB681B091A42FBD0164B194ADA62191C58
:1005F0000122CB681B091A42FBD0164B1968114B1C
:10060000890E8902986A144A02400A439A62191CA8
:100610000122CB681B091A42FBD00A4B998C0F4A66
:100620000A439A84084B0E4A5A601A1C5378DB0915
:10063000FCD10C4B00221A725A729A72DA7270470D
:100640000040004100080040000C0040010503008C
:10065000B905FF7D24608000FF03FFFF0408000050
:1006600000070300000400400EBEFEE70DBEFEE7DB
:1006700005BEFEE702BEFEE710B5184B184A9A42C7
:1006800016D0131C174A9A4212D0144B144A9A429D
:100690000ED2154B11480330C01A8008013080007B
:1006A0000023111C0F4AD458CC5004338342FAD192
:1006B0000E4B0F4A9A420DD00CD20E4B0B49033110
:1006C000C91A890801318900043BC918002204C3F2
:1006D0008B42FCD100F010F8FEE7C0465800002025
:1006E00000000020D41E000004000020A40300200D
:1006F000580000205C00002070B5394B1B680133A6
:100700002ED0384A384B1A60043AFF231A4227D1B8
:1007100038233649CB5CD90703D50021344B196007
:1007200012E0334B1968334B994203D10022304B0E
:100730001A6015E02F492E4B19602F4B013B002BFF
:10074000FCD100212A4B1960254B1B6883F30888D4
:10075000FF239A43294B9A60234B1B681B68184759
:10076000FFF710FF62B600F0F9FF00F069F8041C13
:10077000234B244A5A60214A106A0002000AC02111
:1007800009060143116200229A6007221A601E4E78
:10079000351C3378002B09D101F05CF8002805D016
:1007A000012000F0F9FB00F06FFCFCE7201CA268C0
:1007B0009047002806D0154B1B7B9B0902D00123D4
:1007C00011490B702B78002BE3D0002000F0E4FBE4
:1007D0000F4B802252035A619A6000F055FCFCE7EF
:1007E00000200000042000000C0200200004004053
:1007F000FC7F00203581730748E8010000ED00E030
:1008000010E000E0E7030000760000200050004107
:1008100000440041084B1B68002B03D0064B1A68AC
:10082000013A1A60054B1B78002B04D0034B1A7851
:10083000013AD2B21A707047240200208A000020C8
:1008400010B5054C054B2360FFF71CFD201C2168EB
:10085000FFF70AFD201C10BD1002002000500041CF
:1008600070B5C0B0061C0C1C151C081C01F0ADF9BD
:10087000400002306A461070032353702378002B27
:100880000ED06D08012D0DDD0122013451006846A6
:100890000B5201322378002B05D0AA42F5DB02E08F
:1008A000012200E001225200301C69460023FFF7BC
:1008B0006FFD40B070BDC046F0B54F464646C0B46F
:1008C00083B0061C046810220823FF33E254C54B92
:1008D0001A78C54D2A705A78C4490A7098788146AA
:1008E000C34A10801088DF783F02074317801F79C2
:1008F000C04A178010885F793F02074317809F79AD
:10090000BD4A17801788DB791B023B4313804022C6
:1009100082235B00E2540B782A781B021343B74A08
:10092000934200D122E126DC80225200934200D182
:1009300052E180225200934209DC812B00D1CEE0AB
:10094000822B00D1D3E0802B00D000E2BFE08122D7
:100950005200934200D16FE181225200934200DAAB
:1009600066E1C0229200934200D1F6E0A44A93428D
:1009700000D1F7E0EBE190221201934200D195E023
:100980009022120193420EDCD022D20093421DD05D
:1009900088221201934200D192E0A022D200934219
:1009A00000D0D4E178E0974A934200D1B2E104DC70
:1009B000954A934200D10FE1C9E1944A934200D194
:1009C000ACE1934A934200D1B7E1C0E1884B1B8868
:1009D0001B0A012B0ED13068874B1B889BB2122259
:1009E000122B02D8844B1A8892B28A490023FFF74F
:1009F000CFFCB0E17E4B1B881B0A022B0ED1306866
:100A00007D4B1B889BB24322432B02D87A4B1A881A
:100A100092B281490023FFF7BBFC9CE1744B1B8819
:100A20001B0A032B33D1724B1A88FF231340012B6F
:100A300018D0002B02D0022B1CD023E001A877494C
:100A4000042201F0B1F830686B4B1B889BB2042282
:100A5000042B02D8684B1A8892B201A90023FFF731
:100A600097FC78E1644B1A883068D2B26C49FFF782
:100A7000F7FE70E1604B1A883068D2B26949FFF71F
:100A8000EFFE68E1201C0121FFF718FD63E1201C47
:100A90000121FFF713FD5EE1201CFFF71FFD544B02
:100AA000198889B23068FFF733FD54E1504B1B8839
:100AB0003371201CFFF712FD201CFFF72FFD4AE1C8
:100AC000311C01C901220023FFF762FC43E15649B2
:100AD00000230B8030680222FFF75AFC3BE15249A9
:100AE00000230B8030680222FFF752FC33E1002222
:100AF0004D4B1A803F4B1988502211404B4A1170C0
:100B000019880F220A401A801B889BB2032B1FD81A
:100B1000464B1B78002B0AD0364B1B8808335B01F1
:100B2000E418A2799206D20F3F4B1A8009E0314BAC
:100B30001B8808335B01E418A279D206D20F3A4B26
:100B40001A803068384902220023FFF721FC02E1B5
:100B5000201C0121FFF7B2FCFDE0201C0121FFF762
:100B6000ADFCF8E0201CFFF7B9FCF4E0214B19883C
:100B70007F229143C9B22D4A117019880F220A4071
:100B80001A801B4B1B889BB2002B20D1194B1B8852
:100B90009BB2002B1BD0174B1B889BB2032B16D884
:100BA000224B1B78002B07D0124B1B8808335B01AC
:100BB000E31820225A7106E00E4B1B8808335B01B4
:100BC000E31810225A71201CFFF788FCC3E0201C98
:100BD0000121FFF773FCBEE0201C0121FFF76EFC32
:100BE000B9E0C0468C0000207B0000207C00002083
:100BF000800000207E00002078000020020300001A
:100C00000103000021200000010B0000A1210000D1
:100C100021220000181C000000000020F01B000032
:100C2000F41B0000001C0000820000207A0000205D
:100C3000201CFFF753FC8EE0494B19887F2291431B
:100C4000C9B2484A117019880F220A401A80464BCF
:100C50001B889BB2002B58D1414B1B889BB2002BA9
:100C600053D03F4B1B889BB2032B4ED83D4B1B7878
:100C7000002B23D03A4B1B8808335B01E3189B7988
:100C800098063ED5364B1A8808325201A218202108
:100C900011711B8808335B01E318DB795A0630D5E4
:100CA0002F4B1A8808325201A2184021D1711B889B
:100CB00008335B01E31802221A7122E0284B1B88DB
:100CC00008335B01E3189B79DF061AD5244B1A8899
:100CD00008325201A218102111711B8808335B01E0
:100CE000E318DB7998060CD51D4B1A88083252019F
:100CF000A2182021D1711B8808335B01E31801225F
:100D00001A71201CFFF7EAFB25E0201C0121FFF7E8
:100D1000D5FB20E0201CFFF7E1FB1CE03068134B03
:100D20001B889BB20822082B02D8104B1A8892B25B
:100D30000F490023FFF72CFB0DE00E4B4A461A70BB
:100D4000094B1B887371201CFFF7C8FB03E0201CB4
:100D50000121FFF7B3FB03B00CBC90469946F0BDF0
:100D60007E0000207A000020800000207800002013
:100D7000440000201C02002000B583B00190054B08
:100D8000186801A901220123FFF702FB012003B02B
:100D900000BDC0461002002010B582B0054B186897
:100DA0006C460734211C0122FFF746FB207802B075
:100DB00010BDC0461002002008B50748FFF70CFA26
:100DC000031C0020002B06D0034B1A684823FF3376
:100DD000D35C0120184008BD1002002010B5031C90
:100DE0000C1C044A1068191C221C0123FFF7D0FABE
:100DF000201C10BD1002002038B5051C0C1C074833
:100E0000FFF7EAF90023002806D0044B1868291CD4
:100E1000221CFFF711FB031C181C38BD1002002018
:100E2000F8B5051C0F1C0C48FFF7D6F90023002865
:100E300010D0002F0BD03C1C074E3068291C221C00
:100E4000FFF7FAFA241A2D18002CF6D101E03B1C0A
:100E500000E03B1C181CF8BD1002002008B5C36858
:100E6000081C111C984708BD002804D00023C04668
:100E700001338342FBD1704738B500F0C5FC0C4C00
:100E800080231B02A360A361636980256D032B434C
:100E900063610848FFF7E8FFA3691D43A561BFF33D
:100EA0004F8F054A054BDA60BFF34F8FC046FDE711
:100EB00000440041102700000400FA0500ED00E0A6
:100EC000F0B55F4656464D464446F0B483B0000147
:100ED00083463F20002200230024002520218C4649
:100EE00001212B4EB24600940195041C203C03D4F2
:100EF0000F1CA740B84604E065462C1A0E1CE640BD
:100F0000B0460F1C8740B946141C1D1CA4185D4137
:100F1000221C2B1C5E4647463E4202D00A1C22433E
:100F20002B1C002B02D10DD152450BD9154D144C61
:100F300012196B414D46009E35434446019F3C4388
:100F4000009501940138D0D2009C019D114E301CB7
:100F5000FFF7DCF80C4A0D4B121BAB41120C1904C5
:100F6000114389B2301CC4229203FFF799F803B0F1
:100F70003CBC90469946A246AB46F0BDC046C04632
:100F8000009423FDFFFFFFFF0000000001000000B0
:100F9000FF6BDC02001C0042012806D1064A074B09
:100FA0001A600122064B1A7004E0002802D1054A9B
:100FB000024B1A607047C0464C1C0000880200209B
:100FC00089000020A41C0000F0B585B0021C8C46EE
:100FD000244B1B78002B33D0042901D1036836E061
:100FE0006346022B01D1038831E003786246560044
:100FF00004AA90190B38002E2ED10DE03D1C1D4087
:10100000092D02D81543057001E0373505701B091D
:1010100001380134B442F1D301AB30221A70782286
:101020005A706246013252000A2199549E190D21CC
:10103000F1700D4908680232191CFFF70FFF0FE02D
:10104000094B1868111C6246FFF708FF08E062466A
:10105000560004AA90190B3800240F273022CDE740
:1010600005B0F0BD880000208802002072B6EFF3C2
:101070000883044A1360036883F3088843681847A9
:101080007047C0468C020020F0B55F4656464D467C
:101090004446F0B48DB004A9C14A0B1C31CA31C317
:1010A00091CA91C3A0CAA0C3BE4A93685B035B0FF9
:1010B0009B005B58BC490B60926892B2BB490A60C6
:1010C0005343BB490B60BB4B00221A607A22BA4BD8
:1010D0001A70BA488346BA4C01340194B94C5D4643
:1010E0002B681B69201C40219847B74B1860B74BF1
:1010F0001C600022B64B1A600028EFD0B34C276862
:101100003B78FF2B00D1D1E2232B00D09FE2B14BE3
:101110001B78002B05D0A94B1868AF490222FFF7B6
:101120009DFEA54B1B78532B3ED1A74B1B68A84AAD
:101130001268934221D9A54801680131016001324A
:10114000A34802609A1AA54B1868824202D2A44BA7
:101150001A6001E0A24B1860964B1868A04D2A68EF
:1011600000F022FD2B689A4A106819181160974AFE
:101170001568E91811609B4A1370954B1A68013A7B
:101180001A60924B1A68013A1A60964B1B78934A80
:1011900011688B4206D2894A126886480068C91ACB
:1011A00092699047C04641E2522B08D1834B1B689D
:1011B000804A1068894A11685B69984736E24F2B6C
:1011C00005D17C4B1B68854A12681A702EE2482BA9
:1011D00005D1784B1B68814A12681A8026E2572B8A
:1011E00005D1744B1B687D4A12681A601EE26F2B92
:1011F00005D1704B18680121FFF7E6FE16E2682B57
:1012000008D176486B4B1B681B8803600221FFF7EF
:10121000DBFE0BE2772B08D1664B1B681B686F481F
:1012200003600421FFF7D0FE00E2472B13D16B4B84
:101230001868FFF71BFF6C4B1B6883F3088862B6C6
:101240006A4B1B78002B00D1F0E15C4B1B681B68DC
:1012500006209847EAE1542B09D101225D4B1A7010
:10126000564B18685C490222FFF7F8FDDEE14E2B71
:101270000DD1584B1B78002B05D1504B186856499F
:101280000222FFF7EBFD0022524B1A70CEE1562BE3
:1012900058D14A4D286856490122FFF7DFFD2868DA
:1012A00054490322FFF7DAFD534E2868311C01220E
:1012B000FFF7D4FD286851490D22FFF7CFFD2868BC
:1012C000311C0122FFF7CAFD0022414B1A603F4B3F
:1012D000019F1F603A4D2B78002B00D1F4E13C496F
:1012E0003A4A0B6801330B601368581C10601B7876
:1012F000002BF6D1314E364D306831492A68FFF760
:10130000ADFD30683C490122FFF7A8FD00232B60AA
:101310003B4A2E4B1A60E8E10B6801330B601368FF
:10132000581C10601B78002BF6D1244D284B1A68EE
:1013300028683449FFF792FD286827490222FFF701
:101340008DFD73E1582B1FD1244B1868184B1B6877
:10135000984212D2134A2C4FBC460121124E144D12
:101360004308D36163461380137D1942FCD037686C
:10137000BB00C0182B689842F2D3104B1868234961
:101380000322FFF76BFD51E1592B00D08DE0134B89
:101390001E68002E3ED1074B1A681D4B1A607DE077
:1013A0002C1C0000004000414002002038020020B8
:1013B0003402002084020020300200208802002035
:1013C000781C000044020020280200202C0200208B
:1013D0003C020020880000206C1C000090020020CD
:1013E00094020020200200208C02002089000020AE
:1013F000701C0000681C0000741C0000C01C000071
:10140000851C0000841C000002A5FFFF901C00004A
:1014100084000020B608B64B1D68B64B1F68B64B5B
:101420005A6880218A435A60002E37D0191C012047
:10143000B24A9246002399469046B14A0A800B7DF3
:101440001842FCD053461B68032B16D9002E16D029
:101450004A464B460097B4462E1CB758009DAF50E5
:10146000013347463F68BD08AB420AD204326345A8
:10147000F3D1009F351C664606E04B4604E04B4620
:1014800002E0009F351C66469E4A0A800A7D104293
:10149000FCD09A00BF18AD18F61ACED19A4B186836
:1014A0009A490322FFF7DAFCC0E05A2B37D1914B5F
:1014B0001F68974B1B68002B0CD03D1CFF180026A3
:1014C000311C287800F0EAF9011C0135BD42F8D141
:1014D000061C00E000268C4B18688E490122FFF79D
:1014E000BDFC311C6B460F336E4607360F252A1C98
:1014F0000A400909101C3030092A00DD0730187035
:10150000013BB342F3D1804D286802A90822FFF7BE
:10151000A5FC286880490322FFF7A0FC86E04C2B3D
:101520001CD17E4DAB69802676033343AB61A1238A
:10153000DB03AB607A4F381CFFF796FC6A698423A3
:101540005B0313436B61381CFFF78EFCAB691E43D2
:10155000AE61E1204002FFF7B3FC67E0402B01D011
:101560004D2B63D16F4B1B78002B00D0B6E56E4A34
:101570006E4B1A60E1277F02B846634E6C4D6D4C8E
:1015800024E06D486A494022FEF7E6FD011C694BE4
:1015900018601BD05C4B1B68654FDB68381C984794
:1015A000614A624B1A603B78C02B0FD1604B9B782D
:1015B0000F2B03D14046FFF783FC07E05F4A127808
:1015C000402A03D1122B01D1FFF756FC00F02EF96F
:1015D0000028D6D133681B69281C40219847011C7C
:1015E000206019D0524F381C00F042F94E4A4F4B40
:1015F0001A603B78C02B0FD14D4B9B780F2B0BD132
:101600004B4B997A0902DA7A12040A43597A0A434F
:101610001B7B1B061A439046484B1B78402BD5D1A9
:10162000424B1B68002BD1D1FFF726FC7A22434B9B
:101630001A700022364B1A60414B1B78002B35D0B4
:10164000314B18683F490122FFF708FC2EE01A1CB5
:10165000303A092A06D82E4A303B156829010B4337
:10166000136023E01A1C413A052A06D8284A373B62
:10167000176839010B43136018E01A1C613A052AF8
:1016800006D8234A573B106801010B4313600DE055
:101690002C2B06D11E4B174A1968116000221A60C4
:1016A00004E0264A13700022194B1A60264A136878
:1016B00001331360254A1168013111601D4A126817
:1016C000934200D21BE509E50F4E1F4D30682049BB
:1016D0002A68FFF7C3FB30681E490122FFF7BEFBF3
:1016E00000232B601C4A194B1A601749174A13E64E
:1016F00084000020840200200040004140020020BD
:1017000044A5FFFF04A5FFFF88020020941C0000F1
:1017100090020020981C00009C1C00000044004126
:10172000102700008900002080FC0A00240200200D
:101730004402002028020020001C00423002002049
:1017400088000020A01C00003C0200202C02002089
:10175000781C0000741C0000851C000010B51E4B96
:10176000D622995C012001439954BB22995C0F2435
:10177000A14399549C5C032121439954D7215C5C7B
:1017800020435854985C0F2101409954985C3021B3
:1017900001439954114B196A80220A431A62104A74
:1017A000104B5A801A1C53785BB2002BFBDB0E489F
:1017B0000E49C4229203FEF773FC00230C4A1370F7
:1017C0000C4A13700C4A13700C4A13700C4A1370B5
:1017D0000C4A137010BDC046004400410004004094
:1017E00019400000000C0040001C00425BB10000EA
:1017F0009802002022030020990200209C02002071
:10180000230300202003002008B50248FEF77EFCD9
:1018100008BDC046001C004208B5C1B20248FEF730
:101820007FFC012008BDC046001C0042024B187E10
:101830004007C00F7047C046001C004208B5FFF7C4
:10184000F5FF0028FBD00248FEF770FC08BDC0463B
:10185000001C004208B5FFF7E9FF0023002805D06F
:10186000FFF7ECFF031C233B5A425341181C08BDF1
:1018700070B5041C0E1E06D045182078FFF7CCFF6B
:101880000134AC42F9D1301C70BDC04610B5041C07
:10189000FFF7D4FF2070012010BDC0460B0A58404E
:1018A00040000902024BC05A484080B27047C0460F
:1018B000D01C0000F0B55F4656464D46E0B4061C0D
:1018C0008946002928D00024002718498A46184A4A
:1018D0009346FFF7B3FFC5B251460B78002B1DD1DD
:1018E000281C391CFFF7DAFF071C5A461388002B07
:1018F00003D1104B1B78002B09D0731C35701E1CB4
:101900004946802903D10A490A88013A0A800134EC
:10191000A4B24C45DDD103E0002002E0012000E04C
:10192000381C1CBC91469A46A346F0BD20030020FB
:101930009A02002021030020F0B55F4656464D462E
:101940004446F0B483B001908B4600224A4B1A7093
:10195000002903D10122494B1A700CE0484B198031
:101960000022464B1A705A46520604D05B4680331A
:101970007F2293439B46404D2C1C0026FFF75EFFC1
:101980002B78002B0BD02670FFF758FFC0B22378BE
:10199000002B05D00022384B1A70002563E0C0B23E
:1019A000432823D071285DD01528E7D11EE00022FE
:1019B000314B1A7057E0FF231840062809D1009BCD
:1019C0000133DBB2009380235B429B440199803159
:1019D00001915A46002A10D10420FFF71DFFFFF79E
:1019E0002DFF0022254B1A7001253CE001230093B6
:1019F000234988468946214B9A460120FFF70CFF70
:101A00000098FFF709FF0099C843C0B2FFF704FF31
:101A1000019E8025002742461388002B04D15146A1
:101A20000A780024002A04D03478013B4A46138007
:101A30000136201CFFF7F0FE201C391CFFF72EFF9B
:101A4000071C013D002DE6D1000AC0B2FFF7E4FEFD
:101A5000F8B2FFF7E1FEFFF7F1FE074B1B78002B12
:101A6000A9D0A4E70025281C03B03CBC90469946A9
:101A7000A246AB46F0BDC046200300202103002053
:101A80009A020020F0B557464E46C0B483B0061CFB
:101A90000022414B1A70002903D101223F4B1A70DA
:101AA00004E03F4B198000223C4B1A7064253D4FE7
:101AB0004320FFF7B1FE3C1C00E0013CFFF7B6FEFF
:101AC000002802D1002CF8D101E0002C03D1013D07
:101AD000002DEDD159E001242F4D2F1CFFF7AEFE54
:101AE0002A78002A04D000222B4B1A7000254CE0E3
:101AF000FF230340012B02D0042B39D03BE001A887
:101B00000221FFF7D7FE301C8021FFF7D3FE81466C
:101B10003B78002B34D1FFF791FE000280B2824661
:101B2000FFF78CFE504480B21B4A1378012B27D05C
:101B3000814509D101AB1B78A34205D1E34301AA3A
:101B40005278DBB29A4203D01820FFF765FE17E007
:101B50000620FFF761FE104B1B78002B04D00022FB
:101B60000D4B1A70002510E0631CDCB28036B5E71F
:101B70000620FFF751FE0022084B1A70012504E0F1
:101B8000054B1B78002BF6D0E9E7281C03B00CBCF2
:101B900091469A46F0BDC046200300202103002054
:101BA0009A02002000350C0010B50023934203D0A8
:101BB000CC5CC4540133F9E710BD031C8218934276
:101BC00002D019700133FAE770470023C25C013379
:101BD000002AFBD1581E7047F8B5C046F8BC08BCB7
:101BE0009E467047F8B5C046F8BC08BC9E46704794
:101BF000040309044D6574656361205341000000CE
:101C00004272696B69204D42432D574220426F6FEB
:101C1000746C6F6164657200120100020200004082
:101C20001231020000020102000100000800000061
:101C300010000000200000004000000080000000B4
:101C4000000100000002000000040000191800005C
:101C50003D1800002D180000711800008D180000BC
:101C600039190000851A0000322E31000A0D0000DB
:101C700076000000200000005365702020332032E1
:101C80003032300031313A30363A3237000000001D
:101C9000580A0D00590A0D005A000000230A0D00D1
:101CA0003E000000790D0000990D0000B90D000004
:101CB000DD0D0000F90D0000DD0D0000210E00001B
:101CC0005B41726475696E6F3A58595A5D00000045
:101CD00000002110422063308440A550C660E770A8
:101CE000088129914AA16BB18CC1ADD1CEE1EFF150
:101CF0003112100273325222B5529442F772D662F8
:101D0000399318837BB35AA3BDD39CC3FFF3DEE39F
:101D10006224433420040114E664C774A444855447
:101D20006AA54BB528850995EEE5CFF5ACC58DD5EF
:101D30005336722611163006D776F6669556B44697
:101D40005BB77AA719973887DFF7FEE79DD7BCC73F
:101D5000C448E5588668A7784008611802282338E7
:101D6000CCC9EDD98EE9AFF9488969990AA92BB98F
:101D7000F55AD44AB77A966A711A500A333A122A37
:101D8000FDDBDCCBBFFB9EEB799B588B3BBB1AABDF
:101D9000A66C877CE44CC55C222C033C600C411C87
:101DA000AEED8FFDECCDCDDD2AAD0BBD688D499D2F
:101DB000977EB66ED55EF44E133E322E511E700ED7
:101DC0009FFFBEEFDDDFFCCF1BBF3AAF599F788F7F
:101DD0008891A981CAB1EBA10CD12DC14EF16FE15F
:101DE0008010A100C230E320045025404670676097
:101DF000B9839893FBA3DAB33DC31CD37FE35EF3AF
:101E0000B1029012F322D2323542145277625672E6
:101E1000EAB5CBA5A89589856EF54FE52CD50DC5FE
:101E2000E234C324A0148104667447642454054436
:101E3000DBA7FAB79987B8975FE77EF71DC73CD74E
:101E4000D326F2369106B016576676761546345686
:101E50004CD96DC90EF92FE9C899E9898AB9ABA99E
:101E60004458654806782768C018E1088238A328D6
:101E70007DCB5CDB3FEB1EFBF98BD89BBBAB9ABBEE
:101E8000754A545A376A167AF10AD01AB32A923A26
:101E90002EFD0FED6CDD4DCDAABD8BADE89DC98D3E
:101EA000267C076C645C454CA23C832CE01CC10C76
:101EB0001FEF3EFF5DCF7CDF9BAFBABFD98FF89F8E
:101EC000176E367E554E745E932EB23ED10EF01EC6
:041ED000000000000E
:101ED40009024300020100803209040000010202E9
:101EE400000005240010010424020005240600015A
:101EF4000524010001070583030800FF090401000C
:101F0400020A0000000705810240000007050202E2
:101F14004000000000C20100000008006900000049
:081F2400410000000000000074
:04000003000006797A
:00000001FF
